{
  "_format": "hh-sol-artifact-1",
  "contractName": "TaskContract",
  "sourceName": "contracts/TaskContract.sol",
  "abi": [
    {
      "anonymous": false,
      "inputs": [
        {
          "indexed": false,
          "internalType": "address",
          "name": "recipient",
          "type": "address"
        },
        {
          "indexed": false,
          "internalType": "uint256",
          "name": "taskId",
          "type": "uint256"
        },
        {
          "indexed": false,
          "internalType": "enum TaskContract.Importance",
          "name": "imp",
          "type": "uint8"
        }
      ],
      "name": "AddTask",
      "type": "event"
    },
    {
      "anonymous": false,
      "inputs": [
        {
          "indexed": false,
          "internalType": "uint256",
          "name": "taskId",
          "type": "uint256"
        },
        {
          "indexed": false,
          "internalType": "bool",
          "name": "isDeleted",
          "type": "bool"
        }
      ],
      "name": "DeleteTask",
      "type": "event"
    },
    {
      "inputs": [
        {
          "internalType": "string",
          "name": "taskText",
          "type": "string"
        },
        {
          "internalType": "enum TaskContract.Importance",
          "name": "imp",
          "type": "uint8"
        },
        {
          "internalType": "bool",
          "name": "isDeleted",
          "type": "bool"
        }
      ],
      "name": "addTask",
      "outputs": [],
      "stateMutability": "nonpayable",
      "type": "function"
    },
    {
      "inputs": [
        {
          "internalType": "uint256",
          "name": "taskId",
          "type": "uint256"
        },
        {
          "internalType": "bool",
          "name": "isDeleted",
          "type": "bool"
        }
      ],
      "name": "deleteTask",
      "outputs": [],
      "stateMutability": "nonpayable",
      "type": "function"
    },
    {
      "inputs": [],
      "name": "getMyTasks",
      "outputs": [
        {
          "components": [
            {
              "internalType": "uint256",
              "name": "id",
              "type": "uint256"
            },
            {
              "internalType": "address",
              "name": "username",
              "type": "address"
            },
            {
              "internalType": "string",
              "name": "taskText",
              "type": "string"
            },
            {
              "internalType": "enum TaskContract.Importance",
              "name": "imp",
              "type": "uint8"
            },
            {
              "internalType": "bool",
              "name": "isDeleted",
              "type": "bool"
            }
          ],
          "internalType": "struct TaskContract.Task[]",
          "name": "",
          "type": "tuple[]"
        }
      ],
      "stateMutability": "view",
      "type": "function"
    }
  ],
  "bytecode": "0x608060405234801561001057600080fd5b5061109e806100206000396000f3fe608060405234801561001057600080fd5b50600436106100415760003560e01c80636e13f81814610046578063790c84a914610064578063aaba290714610080575b600080fd5b61004e61009c565b60405161005b9190610cf8565b60405180910390f35b61007e60048036038101906100799190610a6e565b610579565b005b61009a60048036038101906100959190610ad5565b61079d565b005b60606000808054905067ffffffffffffffff8111156100e4577f4e487b7100000000000000000000000000000000000000000000000000000000600052604160045260246000fd5b60405190808252806020026020018201604052801561011d57816020015b61010a6108a5565b8152602001906001900390816101025790505b5090506000805b60008054905081101561044d573373ffffffffffffffffffffffffffffffffffffffff166001600083815260200190815260200160002060009054906101000a900473ffffffffffffffffffffffffffffffffffffffff1673ffffffffffffffffffffffffffffffffffffffff161480156101fb575060001515600082815481106101d8577f4e487b7100000000000000000000000000000000000000000000000000000000600052603260045260246000fd5b906000526020600020906004020160030160019054906101000a900460ff161515145b1561043a576000818154811061023a577f4e487b7100000000000000000000000000000000000000000000000000000000600052603260045260246000fd5b90600052602060002090600402016040518060a0016040529081600082015481526020016001820160009054906101000a900473ffffffffffffffffffffffffffffffffffffffff1673ffffffffffffffffffffffffffffffffffffffff1673ffffffffffffffffffffffffffffffffffffffff1681526020016002820180546102c390610e9d565b80601f01602080910402602001604051908101604052809291908181526020018280546102ef90610e9d565b801561033c5780601f106103115761010080835404028352916020019161033c565b820191906000526020600020905b81548152906001019060200180831161031f57829003601f168201915b505050505081526020016003820160009054906101000a900460ff166002811115610390577f4e487b7100000000000000000000000000000000000000000000000000000000600052602160045260246000fd5b60028111156103c8577f4e487b7100000000000000000000000000000000000000000000000000000000600052602160045260246000fd5b81526020016003820160019054906101000a900460ff161515151581525050838381518110610420577f4e487b7100000000000000000000000000000000000000000000000000000000600052603260045260246000fd5b6020026020010181905250818061043690610f00565b9250505b808061044590610f00565b915050610124565b5060008167ffffffffffffffff811115610490577f4e487b7100000000000000000000000000000000000000000000000000000000600052604160045260246000fd5b6040519080825280602002602001820160405280156104c957816020015b6104b66108a5565b8152602001906001900390816104ae5790505b50905060005b8281101561056f57838181518110610510577f4e487b7100000000000000000000000000000000000000000000000000000000600052603260045260246000fd5b6020026020010151828281518110610551577f4e487b7100000000000000000000000000000000000000000000000000000000600052603260045260246000fd5b6020026020010181905250808061056790610f00565b9150506104cf565b5080935050505090565b60008080549050905060006040518060a001604052808381526020013373ffffffffffffffffffffffffffffffffffffffff1681526020018681526020018560028111156105f0577f4e487b7100000000000000000000000000000000000000000000000000000000600052602160045260246000fd5b815260200184151581525090806001815401808255809150506001900390600052602060002090600402016000909190919091506000820151816000015560208201518160010160006101000a81548173ffffffffffffffffffffffffffffffffffffffff021916908373ffffffffffffffffffffffffffffffffffffffff1602179055506040820151816002019080519060200190610691929190610924565b5060608201518160030160006101000a81548160ff021916908360028111156106e3577f4e487b7100000000000000000000000000000000000000000000000000000000600052602160045260246000fd5b021790555060808201518160030160016101000a81548160ff0219169083151502179055505050336001600083815260200190815260200160002060006101000a81548173ffffffffffffffffffffffffffffffffffffffff021916908373ffffffffffffffffffffffffffffffffffffffff1602179055507fed9f614defede7f0abe05795aa609b431582a6249df431727c5bb29a51591e4b33828560405161078f93929190610cc1565b60405180910390a150505050565b3373ffffffffffffffffffffffffffffffffffffffff166001600084815260200190815260200160002060009054906101000a900473ffffffffffffffffffffffffffffffffffffffff1673ffffffffffffffffffffffffffffffffffffffff1614156108a157806000838154811061083f577f4e487b7100000000000000000000000000000000000000000000000000000000600052603260045260246000fd5b906000526020600020906004020160030160016101000a81548160ff0219169083151502179055507ff88a35c3d2016c409a46570b994a17b408dbc83c14a03f521512d50b85386d068282604051610898929190610d1a565b60405180910390a15b5050565b6040518060a0016040528060008152602001600073ffffffffffffffffffffffffffffffffffffffff1681526020016060815260200160006002811115610915577f4e487b7100000000000000000000000000000000000000000000000000000000600052602160045260246000fd5b81526020016000151581525090565b82805461093090610e9d565b90600052602060002090601f0160209004810192826109525760008555610999565b82601f1061096b57805160ff1916838001178555610999565b82800160010185558215610999579182015b8281111561099857825182559160200191906001019061097d565b5b5090506109a691906109aa565b5090565b5b808211156109c35760008160009055506001016109ab565b5090565b60006109da6109d584610d68565b610d43565b9050828152602081018484840111156109f257600080fd5b6109fd848285610e5b565b509392505050565b600081359050610a148161102a565b92915050565b600081359050610a2981611041565b92915050565b600082601f830112610a4057600080fd5b8135610a508482602086016109c7565b91505092915050565b600081359050610a6881611051565b92915050565b600080600060608486031215610a8357600080fd5b600084013567ffffffffffffffff811115610a9d57600080fd5b610aa986828701610a2f565b9350506020610aba86828701610a1a565b9250506040610acb86828701610a05565b9150509250925092565b60008060408385031215610ae857600080fd5b6000610af685828601610a59565b9250506020610b0785828601610a05565b9150509250929050565b6000610b1d8383610c2d565b905092915050565b610b2e81610dee565b82525050565b610b3d81610dee565b82525050565b6000610b4e82610da9565b610b588185610dcc565b935083602082028501610b6a85610d99565b8060005b85811015610ba65784840389528151610b878582610b11565b9450610b9283610dbf565b925060208a01995050600181019050610b6e565b50829750879550505050505092915050565b610bc181610e00565b82525050565b610bd081610e00565b82525050565b610bdf81610e49565b82525050565b610bee81610e49565b82525050565b6000610bff82610db4565b610c098185610ddd565b9350610c19818560208601610e6a565b610c2281611005565b840191505092915050565b600060a083016000830151610c456000860182610ca3565b506020830151610c586020860182610b25565b5060408301518482036040860152610c708282610bf4565b9150506060830151610c856060860182610bd6565b506080830151610c986080860182610bb8565b508091505092915050565b610cac81610e3f565b82525050565b610cbb81610e3f565b82525050565b6000606082019050610cd66000830186610b34565b610ce36020830185610cb2565b610cf06040830184610be5565b949350505050565b60006020820190508181036000830152610d128184610b43565b905092915050565b6000604082019050610d2f6000830185610cb2565b610d3c6020830184610bc7565b9392505050565b6000610d4d610d5e565b9050610d598282610ecf565b919050565b6000604051905090565b600067ffffffffffffffff821115610d8357610d82610fd6565b5b610d8c82611005565b9050602081019050919050565b6000819050602082019050919050565b600081519050919050565b600081519050919050565b6000602082019050919050565b600082825260208201905092915050565b600082825260208201905092915050565b6000610df982610e1f565b9050919050565b60008115159050919050565b6000819050610e1a82611016565b919050565b600073ffffffffffffffffffffffffffffffffffffffff82169050919050565b6000819050919050565b6000610e5482610e0c565b9050919050565b82818337600083830152505050565b60005b83811015610e88578082015181840152602081019050610e6d565b83811115610e97576000848401525b50505050565b60006002820490506001821680610eb557607f821691505b60208210811415610ec957610ec8610fa7565b5b50919050565b610ed882611005565b810181811067ffffffffffffffff82111715610ef757610ef6610fd6565b5b80604052505050565b6000610f0b82610e3f565b91507fffffffffffffffffffffffffffffffffffffffffffffffffffffffffffffffff821415610f3e57610f3d610f49565b5b600182019050919050565b7f4e487b7100000000000000000000000000000000000000000000000000000000600052601160045260246000fd5b7f4e487b7100000000000000000000000000000000000000000000000000000000600052602160045260246000fd5b7f4e487b7100000000000000000000000000000000000000000000000000000000600052602260045260246000fd5b7f4e487b7100000000000000000000000000000000000000000000000000000000600052604160045260246000fd5b6000601f19601f8301169050919050565b6003811061102757611026610f78565b5b50565b61103381610e00565b811461103e57600080fd5b50565b6003811061104e57600080fd5b50565b61105a81610e3f565b811461106557600080fd5b5056fea2646970667358221220272301ad672efcc3bee5c0b63a2ab991c89d36df619d78686b4ea207b6867ef664736f6c63430008040033",
  "linkReferences": {},
  "deployedLinkReferences": {}
}